{"src/TSwapPool.sol":{"TSwapPool":{"abi":[{"type":"constructor","inputs":[{"name":"poolToken","type":"address","internalType":"address"},{"name":"wethToken","type":"address","internalType":"address"},{"name":"liquidityTokenName","type":"string","internalType":"string"},{"name":"liquidityTokenSymbol","type":"string","internalType":"string"}],"stateMutability":"nonpayable"},{"type":"function","name":"allowance","inputs":[{"name":"owner","type":"address","internalType":"address"},{"name":"spender","type":"address","internalType":"address"}],"outputs":[{"name":"","type":"uint256","internalType":"uint256"}],"stateMutability":"view"},{"type":"function","name":"approve","inputs":[{"name":"spender","type":"address","internalType":"address"},{"name":"value","type":"uint256","internalType":"uint256"}],"outputs":[{"name":"","type":"bool","internalType":"bool"}],"stateMutability":"nonpayable"},{"type":"function","name":"balanceOf","inputs":[{"name":"account","type":"address","internalType":"address"}],"outputs":[{"name":"","type":"uint256","internalType":"uint256"}],"stateMutability":"view"},{"type":"function","name":"decimals","inputs":[],"outputs":[{"name":"","type":"uint8","internalType":"uint8"}],"stateMutability":"view"},{"type":"function","name":"deposit","inputs":[{"name":"wethToDeposit","type":"uint256","internalType":"uint256"},{"name":"minimumLiquidityTokensToMint","type":"uint256","internalType":"uint256"},{"name":"maximumPoolTokensToDeposit","type":"uint256","internalType":"uint256"},{"name":"deadline","type":"uint64","internalType":"uint64"}],"outputs":[{"name":"liquidityTokensToMint","type":"uint256","internalType":"uint256"}],"stateMutability":"nonpayable"},{"type":"function","name":"getInputAmountBasedOnOutput","inputs":[{"name":"outputAmount","type":"uint256","internalType":"uint256"},{"name":"inputReserves","type":"uint256","internalType":"uint256"},{"name":"outputReserves","type":"uint256","internalType":"uint256"}],"outputs":[{"name":"inputAmount","type":"uint256","internalType":"uint256"}],"stateMutability":"pure"},{"type":"function","name":"getMinimumWethDepositAmount","inputs":[],"outputs":[{"name":"","type":"uint256","internalType":"uint256"}],"stateMutability":"pure"},{"type":"function","name":"getOutputAmountBasedOnInput","inputs":[{"name":"inputAmount","type":"uint256","internalType":"uint256"},{"name":"inputReserves","type":"uint256","internalType":"uint256"},{"name":"outputReserves","type":"uint256","internalType":"uint256"}],"outputs":[{"name":"outputAmount","type":"uint256","internalType":"uint256"}],"stateMutability":"pure"},{"type":"function","name":"getPoolToken","inputs":[],"outputs":[{"name":"","type":"address","internalType":"address"}],"stateMutability":"view"},{"type":"function","name":"getPoolTokensToDepositBasedOnWeth","inputs":[{"name":"wethToDeposit","type":"uint256","internalType":"uint256"}],"outputs":[{"name":"","type":"uint256","internalType":"uint256"}],"stateMutability":"view"},{"type":"function","name":"getPriceOfOnePoolTokenInWeth","inputs":[],"outputs":[{"name":"","type":"uint256","internalType":"uint256"}],"stateMutability":"view"},{"type":"function","name":"getPriceOfOneWethInPoolTokens","inputs":[],"outputs":[{"name":"","type":"uint256","internalType":"uint256"}],"stateMutability":"view"},{"type":"function","name":"getWeth","inputs":[],"outputs":[{"name":"","type":"address","internalType":"address"}],"stateMutability":"view"},{"type":"function","name":"name","inputs":[],"outputs":[{"name":"","type":"string","internalType":"string"}],"stateMutability":"view"},{"type":"function","name":"sellPoolTokens","inputs":[{"name":"poolTokenAmount","type":"uint256","internalType":"uint256"}],"outputs":[{"name":"wethAmount","type":"uint256","internalType":"uint256"}],"stateMutability":"nonpayable"},{"type":"function","name":"swapExactInput","inputs":[{"name":"inputToken","type":"address","internalType":"contract IERC20"},{"name":"inputAmount","type":"uint256","internalType":"uint256"},{"name":"outputToken","type":"address","internalType":"contract IERC20"},{"name":"minOutputAmount","type":"uint256","internalType":"uint256"},{"name":"deadline","type":"uint64","internalType":"uint64"}],"outputs":[{"name":"output","type":"uint256","internalType":"uint256"}],"stateMutability":"nonpayable"},{"type":"function","name":"swapExactOutput","inputs":[{"name":"inputToken","type":"address","internalType":"contract IERC20"},{"name":"outputToken","type":"address","internalType":"contract IERC20"},{"name":"outputAmount","type":"uint256","internalType":"uint256"},{"name":"deadline","type":"uint64","internalType":"uint64"}],"outputs":[{"name":"inputAmount","type":"uint256","internalType":"uint256"}],"stateMutability":"nonpayable"},{"type":"function","name":"symbol","inputs":[],"outputs":[{"name":"","type":"string","internalType":"string"}],"stateMutability":"view"},{"type":"function","name":"totalLiquidityTokenSupply","inputs":[],"outputs":[{"name":"","type":"uint256","internalType":"uint256"}],"stateMutability":"view"},{"type":"function","name":"totalSupply","inputs":[],"outputs":[{"name":"","type":"uint256","internalType":"uint256"}],"stateMutability":"view"},{"type":"function","name":"transfer","inputs":[{"name":"to","type":"address","internalType":"address"},{"name":"value","type":"uint256","internalType":"uint256"}],"outputs":[{"name":"","type":"bool","internalType":"bool"}],"stateMutability":"nonpayable"},{"type":"function","name":"transferFrom","inputs":[{"name":"from","type":"address","internalType":"address"},{"name":"to","type":"address","internalType":"address"},{"name":"value","type":"uint256","internalType":"uint256"}],"outputs":[{"name":"","type":"bool","internalType":"bool"}],"stateMutability":"nonpayable"},{"type":"function","name":"withdraw","inputs":[{"name":"liquidityTokensToBurn","type":"uint256","internalType":"uint256"},{"name":"minWethToWithdraw","type":"uint256","internalType":"uint256"},{"name":"minPoolTokensToWithdraw","type":"uint256","internalType":"uint256"},{"name":"deadline","type":"uint64","internalType":"uint64"}],"outputs":[],"stateMutability":"nonpayable"},{"type":"event","name":"Approval","inputs":[{"name":"owner","type":"address","indexed":true,"internalType":"address"},{"name":"spender","type":"address","indexed":true,"internalType":"address"},{"name":"value","type":"uint256","indexed":false,"internalType":"uint256"}],"anonymous":false},{"type":"event","name":"LiquidityAdded","inputs":[{"name":"liquidityProvider","type":"address","indexed":true,"internalType":"address"},{"name":"wethDeposited","type":"uint256","indexed":false,"internalType":"uint256"},{"name":"poolTokensDeposited","type":"uint256","indexed":false,"internalType":"uint256"}],"anonymous":false},{"type":"event","name":"LiquidityRemoved","inputs":[{"name":"liquidityProvider","type":"address","indexed":true,"internalType":"address"},{"name":"wethWithdrawn","type":"uint256","indexed":false,"internalType":"uint256"},{"name":"poolTokensWithdrawn","type":"uint256","indexed":false,"internalType":"uint256"}],"anonymous":false},{"type":"event","name":"Swap","inputs":[{"name":"swapper","type":"address","indexed":true,"internalType":"address"},{"name":"tokenIn","type":"address","indexed":false,"internalType":"contract IERC20"},{"name":"amountTokenIn","type":"uint256","indexed":false,"internalType":"uint256"},{"name":"tokenOut","type":"address","indexed":false,"internalType":"contract IERC20"},{"name":"amountTokenOut","type":"uint256","indexed":false,"internalType":"uint256"}],"anonymous":false},{"type":"event","name":"Transfer","inputs":[{"name":"from","type":"address","indexed":true,"internalType":"address"},{"name":"to","type":"address","indexed":true,"internalType":"address"},{"name":"value","type":"uint256","indexed":false,"internalType":"uint256"}],"anonymous":false},{"type":"error","name":"ERC20InsufficientAllowance","inputs":[{"name":"spender","type":"address","internalType":"address"},{"name":"allowance","type":"uint256","internalType":"uint256"},{"name":"needed","type":"uint256","internalType":"uint256"}]},{"type":"error","name":"ERC20InsufficientBalance","inputs":[{"name":"sender","type":"address","internalType":"address"},{"name":"balance","type":"uint256","internalType":"uint256"},{"name":"needed","type":"uint256","internalType":"uint256"}]},{"type":"error","name":"ERC20InvalidApprover","inputs":[{"name":"approver","type":"address","internalType":"address"}]},{"type":"error","name":"ERC20InvalidReceiver","inputs":[{"name":"receiver","type":"address","internalType":"address"}]},{"type":"error","name":"ERC20InvalidSender","inputs":[{"name":"sender","type":"address","internalType":"address"}]},{"type":"error","name":"ERC20InvalidSpender","inputs":[{"name":"spender","type":"address","internalType":"address"}]},{"type":"error","name":"SafeERC20FailedOperation","inputs":[{"name":"token","type":"address","internalType":"address"}]},{"type":"error","name":"TSwapPool__DeadlineHasPassed","inputs":[{"name":"deadline","type":"uint64","internalType":"uint64"}]},{"type":"error","name":"TSwapPool__InvalidToken","inputs":[]},{"type":"error","name":"TSwapPool__MaxPoolTokenDepositTooHigh","inputs":[{"name":"maximumPoolTokensToDeposit","type":"uint256","internalType":"uint256"},{"name":"poolTokensToDeposit","type":"uint256","internalType":"uint256"}]},{"type":"error","name":"TSwapPool__MinLiquidityTokensToMintTooLow","inputs":[{"name":"minimumLiquidityTokensToMint","type":"uint256","internalType":"uint256"},{"name":"liquidityTokensToMint","type":"uint256","internalType":"uint256"}]},{"type":"error","name":"TSwapPool__MustBeMoreThanZero","inputs":[]},{"type":"error","name":"TSwapPool__OutputTooLow","inputs":[{"name":"actual","type":"uint256","internalType":"uint256"},{"name":"min","type":"uint256","internalType":"uint256"}]},{"type":"error","name":"TSwapPool__WethDepositAmountTooLow","inputs":[{"name":"minimumWethDeposit","type":"uint256","internalType":"uint256"},{"name":"wethToDeposit","type":"uint256","internalType":"uint256"}]}],"userdoc":{},"devdoc":{},"evm":{"bytecode":{"object":"60c06040525f60055534801562000014575f80fd5b50604051620033383803806200333883398181016040528101906200003a9190620002ba565b818181600390816200004d91906200059e565b5080600490816200005f91906200059e565b5050508273ffffffffffffffffffffffffffffffffffffffff1660808173ffffffffffffffffffffffffffffffffffffffff16815250508373ffffffffffffffffffffffffffffffffffffffff1660a08173ffffffffffffffffffffffffffffffffffffffff16815250505050505062000682565b5f604051905090565b5f80fd5b5f80fd5b5f73ffffffffffffffffffffffffffffffffffffffff82169050919050565b5f6200011082620000e5565b9050919050565b620001228162000104565b81146200012d575f80fd5b50565b5f81519050620001408162000117565b92915050565b5f80fd5b5f80fd5b5f601f19601f8301169050919050565b7f4e487b71000000000000000000000000000000000000000000000000000000005f52604160045260245ffd5b62000196826200014e565b810181811067ffffffffffffffff82111715620001b857620001b76200015e565b5b80604052505050565b5f620001cc620000d4565b9050620001da82826200018b565b919050565b5f67ffffffffffffffff821115620001fc57620001fb6200015e565b5b62000207826200014e565b9050602081019050919050565b5f5b838110156200023357808201518184015260208101905062000216565b5f8484015250505050565b5f620002546200024e84620001df565b620001c1565b9050828152602081018484840111156200027357620002726200014a565b5b6200028084828562000214565b509392505050565b5f82601f8301126200029f576200029e62000146565b5b8151620002b18482602086016200023e565b91505092915050565b5f805f8060808587031215620002d557620002d4620000dd565b5b5f620002e48782880162000130565b9450506020620002f78782880162000130565b935050604085015167ffffffffffffffff8111156200031b576200031a620000e1565b5b620003298782880162000288565b925050606085015167ffffffffffffffff8111156200034d576200034c620000e1565b5b6200035b8782880162000288565b91505092959194509250565b5f81519050919050565b7f4e487b71000000000000000000000000000000000000000000000000000000005f52602260045260245ffd5b5f6002820490506001821680620003b657607f821691505b602082108103620003cc57620003cb62000371565b5b50919050565b5f819050815f5260205f209050919050565b5f6020601f8301049050919050565b5f82821b905092915050565b5f60088302620004307fffffffffffffffffffffffffffffffffffffffffffffffffffffffffffffffff82620003f3565b6200043c8683620003f3565b95508019841693508086168417925050509392505050565b5f819050919050565b5f819050919050565b5f62000486620004806200047a8462000454565b6200045d565b62000454565b9050919050565b5f819050919050565b620004a18362000466565b620004b9620004b0826200048d565b848454620003ff565b825550505050565b5f90565b620004cf620004c1565b620004dc81848462000496565b505050565b5b818110156200050357620004f75f82620004c5565b600181019050620004e2565b5050565b601f82111562000552576200051c81620003d2565b6200052784620003e4565b8101602085101562000537578190505b6200054f6200054685620003e4565b830182620004e1565b50505b505050565b5f82821c905092915050565b5f620005745f198460080262000557565b1980831691505092915050565b5f6200058e838362000563565b9150826002028217905092915050565b620005a98262000367565b67ffffffffffffffff811115620005c557620005c46200015e565b5b620005d182546200039e565b620005de82828562000507565b5f60209050601f83116001811462000614575f8415620005ff578287015190505b6200060b858262000581565b8655506200067a565b601f1984166200062486620003d2565b5f5b828110156200064d5784890151825560018201915060208501945060208101905062000626565b868310156200066d578489015162000669601f89168262000563565b8355505b6001600288020188555050505b505050505050565b60805160a051612c16620007225f395f81816105f50152818161097f01528181610f950152818161117c01528181611273015281816113d40152818161150f015281816115b901528181611ba7015261213101525f818161058c01528181610616015281816108e401528181610edd01528181611131015281816111db0152818161146c0152818161165401528181611b5a01526120da0152612c165ff3fe608060405234801561000f575f80fd5b506004361061014b575f3560e01c80636b3c4779116100c1578063a9059cbb1161007a578063a9059cbb146103db578063b7e7fdcc1461040b578063dc0374d114610429578063dd62ed3e14610447578063e29e037814610477578063ff792c96146104a75761014b565b80636b3c47791461030557806370a082311461033557806385b29438146103655780638933da3a146103835780638fd782421461039f57806395d89b41146103bd5761014b565b8063313ce56711610113578063313ce5671461020957806335e6bf53146102275780633dd5e20d146102575780633f163cdf146102875780634b785efe146102a55780634e6d9df8146102d55761014b565b806306fdde031461014f578063095ea7b31461016d578063107c279f1461019d57806318160ddd146101bb57806323b872dd146101d9575b5f80fd5b6101576104d7565b60405161016491906123bd565b60405180910390f35b6101876004803603810190610182919061246e565b610567565b60405161019491906124c6565b60405180910390f35b6101a5610589565b6040516101b291906124ee565b60405180910390f35b6101c36105b0565b6040516101d09190612516565b60405180910390f35b6101f360048036038101906101ee919061252f565b6105b9565b60405161020091906124c6565b60405180910390f35b6102116105e7565b60405161021e919061259a565b60405180910390f35b610241600480360381019061023c91906125b3565b6105ef565b60405161024e9190612516565b60405180910390f35b610271600480360381019061026c9190612656565b610643565b60405161027e9190612516565b60405180910390f35b61028f61083d565b60405161029c9190612516565b60405180910390f35b6102bf60048036038101906102ba91906126cd565b610848565b6040516102cc9190612516565b60405180910390f35b6102ef60048036038101906102ea9190612731565b610afc565b6040516102fc9190612516565b60405180910390f35b61031f600480360381019061031a9190612795565b610cac565b60405161032c9190612516565b60405180910390f35b61034f600480360381019061034a91906127e5565b610d77565b60405161035c9190612516565b60405180910390f35b61036d610dbc565b60405161037a9190612516565b60405180910390f35b61039d600480360381019061039891906126cd565b610dca565b005b6103a76111cc565b6040516103b49190612516565b60405180910390f35b6103c5611313565b6040516103d291906123bd565b60405180910390f35b6103f560048036038101906103f0919061246e565b6113a3565b60405161040291906124c6565b60405180910390f35b6104136113c5565b6040516104209190612516565b60405180910390f35b61043161150c565b60405161043e91906124ee565b60405180910390f35b610461600480360381019061045c9190612810565b611533565b60405161046e9190612516565b60405180910390f35b610491600480360381019061048c91906125b3565b6115b5565b60405161049e9190612516565b60405180910390f35b6104c160048036038101906104bc9190612795565b61170c565b6040516104ce9190612516565b60405180910390f35b6060600380546104e69061287b565b80601f01602080910402602001604051908101604052809291908181526020018280546105129061287b565b801561055d5780601f106105345761010080835404028352916020019161055d565b820191905f5260205f20905b81548152906001019060200180831161054057829003601f168201915b5050505050905090565b5f806105716117c8565b905061057e8185856117cf565b600191505092915050565b5f7f0000000000000000000000000000000000000000000000000000000000000000905090565b5f600254905090565b5f806105c36117c8565b90506105d08582856117e1565b6105db858585611874565b60019150509392505050565b5f6012905090565b5f61063c7f00000000000000000000000000000000000000000000000000000000000000007f00000000000000000000000000000000000000000000000000000000000000008442610afc565b9050919050565b5f845f810361067e576040517f592cd3d200000000000000000000000000000000000000000000000000000000815260040160405180910390fd5b824267ffffffffffffffff168167ffffffffffffffff1610156106d857806040517ff20357c30000000000000000000000000000000000000000000000000000000081526004016106cf91906128ba565b60405180910390fd5b5f8873ffffffffffffffffffffffffffffffffffffffff166370a08231306040518263ffffffff1660e01b815260040161071291906124ee565b602060405180830381865afa15801561072d573d5f803e3d5ffd5b505050506040513d601f19601f8201168201806040525081019061075191906128e7565b90505f8773ffffffffffffffffffffffffffffffffffffffff166370a08231306040518263ffffffff1660e01b815260040161078d91906124ee565b602060405180830381865afa1580156107a8573d5f803e3d5ffd5b505050506040513d601f19601f820116820180604052508101906107cc91906128e7565b90505f6107da8a8484610cac565b9050878110156108235780886040517ffeb54daf00000000000000000000000000000000000000000000000000000000815260040161081a929190612912565b60405180910390fd5b61082f8b8b8b84611964565b505050505095945050505050565b5f633b9aca00905090565b5f845f8103610883576040517f592cd3d200000000000000000000000000000000000000000000000000000000815260040160405180910390fd5b633b9aca008610156108d257633b9aca00866040517f1da6b0140000000000000000000000000000000000000000000000000000000081526004016108c9929190612912565b60405180910390fd5b5f6108db610dbc565b1115610ae4575f7f000000000000000000000000000000000000000000000000000000000000000073ffffffffffffffffffffffffffffffffffffffff166370a08231306040518263ffffffff1660e01b815260040161093b91906124ee565b602060405180830381865afa158015610956573d5f803e3d5ffd5b505050506040513d601f19601f8201168201806040525081019061097a91906128e7565b90505f7f000000000000000000000000000000000000000000000000000000000000000073ffffffffffffffffffffffffffffffffffffffff166370a08231306040518263ffffffff1660e01b81526004016109d691906124ee565b602060405180830381865afa1580156109f1573d5f803e3d5ffd5b505050506040513d601f19601f82011682018060405250810190610a1591906128e7565b90505f610a21896115b5565b905080871015610a6a5786816040517f87536714000000000000000000000000000000000000000000000000000000008152600401610a61929190612912565b60405180910390fd5b82610a73610dbc565b8a610a7e9190612966565b610a8891906129d4565b945087851015610ad15787856040517f73b0b2a2000000000000000000000000000000000000000000000000000000008152600401610ac8929190612912565b60405180910390fd5b610adc898287611af8565b505050610af3565b610aef868588611af8565b8591505b50949350505050565b5f825f8103610b37576040517f592cd3d200000000000000000000000000000000000000000000000000000000815260040160405180910390fd5b824267ffffffffffffffff168167ffffffffffffffff161015610b9157806040517ff20357c3000000000000000000000000000000000000000000000000000000008152600401610b8891906128ba565b60405180910390fd5b5f8773ffffffffffffffffffffffffffffffffffffffff166370a08231306040518263ffffffff1660e01b8152600401610bcb91906124ee565b602060405180830381865afa158015610be6573d5f803e3d5ffd5b505050506040513d601f19601f82011682018060405250810190610c0a91906128e7565b90505f8773ffffffffffffffffffffffffffffffffffffffff166370a08231306040518263ffffffff1660e01b8152600401610c4691906124ee565b602060405180830381865afa158015610c61573d5f803e3d5ffd5b505050506040513d601f19601f82011682018060405250810190610c8591906128e7565b9050610c9287838361170c565b9450610ca089868a8a611964565b50505050949350505050565b5f835f8103610ce7576040517f592cd3d200000000000000000000000000000000000000000000000000000000815260040160405180910390fd5b825f8103610d21576040517f592cd3d200000000000000000000000000000000000000000000000000000000815260040160405180910390fd5b5f6103e587610d309190612966565b90505f8582610d3f9190612966565b90505f826103e889610d519190612966565b610d5b9190612a04565b90508082610d6991906129d4565b955050505050509392505050565b5f805f8373ffffffffffffffffffffffffffffffffffffffff1673ffffffffffffffffffffffffffffffffffffffff1681526020019081526020015f20549050919050565b5f610dc56105b0565b905090565b804267ffffffffffffffff168167ffffffffffffffff161015610e2457806040517ff20357c3000000000000000000000000000000000000000000000000000000008152600401610e1b91906128ba565b60405180910390fd5b845f8103610e5e576040517f592cd3d200000000000000000000000000000000000000000000000000000000815260040160405180910390fd5b845f8103610e98576040517f592cd3d200000000000000000000000000000000000000000000000000000000815260040160405180910390fd5b845f8103610ed2576040517f592cd3d200000000000000000000000000000000000000000000000000000000815260040160405180910390fd5b5f610edb610dbc565b7f000000000000000000000000000000000000000000000000000000000000000073ffffffffffffffffffffffffffffffffffffffff166370a08231306040518263ffffffff1660e01b8152600401610f3491906124ee565b602060405180830381865afa158015610f4f573d5f803e3d5ffd5b505050506040513d601f19601f82011682018060405250810190610f7391906128e7565b8a610f7e9190612966565b610f8891906129d4565b90505f610f93610dbc565b7f000000000000000000000000000000000000000000000000000000000000000073ffffffffffffffffffffffffffffffffffffffff166370a08231306040518263ffffffff1660e01b8152600401610fec91906124ee565b602060405180830381865afa158015611007573d5f803e3d5ffd5b505050506040513d601f19601f8201168201806040525081019061102b91906128e7565b8b6110369190612966565b61104091906129d4565b9050888210156110895781896040517ffeb54daf000000000000000000000000000000000000000000000000000000008152600401611080929190612912565b60405180910390fd5b878110156110d05780886040517ffeb54daf0000000000000000000000000000000000000000000000000000000081526004016110c7929190612912565b60405180910390fd5b6110da338b611bf1565b3373ffffffffffffffffffffffffffffffffffffffff167f96cd817c6329656790ef8fba7675405193677d39619571282f5e21f3a98cd0598383604051611122929190612912565b60405180910390a261117533837f000000000000000000000000000000000000000000000000000000000000000073ffffffffffffffffffffffffffffffffffffffff16611c709092919063ffffffff16565b6111c033827f000000000000000000000000000000000000000000000000000000000000000073ffffffffffffffffffffffffffffffffffffffff16611c709092919063ffffffff16565b50505050505050505050565b5f61130e670de0b6b3a76400007f000000000000000000000000000000000000000000000000000000000000000073ffffffffffffffffffffffffffffffffffffffff166370a08231306040518263ffffffff1660e01b815260040161123291906124ee565b602060405180830381865afa15801561124d573d5f803e3d5ffd5b505050506040513d601f19601f8201168201806040525081019061127191906128e7565b7f000000000000000000000000000000000000000000000000000000000000000073ffffffffffffffffffffffffffffffffffffffff166370a08231306040518263ffffffff1660e01b81526004016112ca91906124ee565b602060405180830381865afa1580156112e5573d5f803e3d5ffd5b505050506040513d601f19601f8201168201806040525081019061130991906128e7565b610cac565b905090565b6060600480546113229061287b565b80601f016020809104026020016040519081016040528092919081815260200182805461134e9061287b565b80156113995780601f1061137057610100808354040283529160200191611399565b820191905f5260205f20905b81548152906001019060200180831161137c57829003601f168201915b5050505050905090565b5f806113ad6117c8565b90506113ba818585611874565b600191505092915050565b5f611507670de0b6b3a76400007f000000000000000000000000000000000000000000000000000000000000000073ffffffffffffffffffffffffffffffffffffffff166370a08231306040518263ffffffff1660e01b815260040161142b91906124ee565b602060405180830381865afa158015611446573d5f803e3d5ffd5b505050506040513d601f19601f8201168201806040525081019061146a91906128e7565b7f000000000000000000000000000000000000000000000000000000000000000073ffffffffffffffffffffffffffffffffffffffff166370a08231306040518263ffffffff1660e01b81526004016114c391906124ee565b602060405180830381865afa1580156114de573d5f803e3d5ffd5b505050506040513d601f19601f8201168201806040525081019061150291906128e7565b610cac565b905090565b5f7f0000000000000000000000000000000000000000000000000000000000000000905090565b5f60015f8473ffffffffffffffffffffffffffffffffffffffff1673ffffffffffffffffffffffffffffffffffffffff1681526020019081526020015f205f8373ffffffffffffffffffffffffffffffffffffffff1673ffffffffffffffffffffffffffffffffffffffff1681526020019081526020015f2054905092915050565b5f807f000000000000000000000000000000000000000000000000000000000000000073ffffffffffffffffffffffffffffffffffffffff166370a08231306040518263ffffffff1660e01b815260040161161091906124ee565b602060405180830381865afa15801561162b573d5f803e3d5ffd5b505050506040513d601f19601f8201168201806040525081019061164f91906128e7565b90505f7f000000000000000000000000000000000000000000000000000000000000000073ffffffffffffffffffffffffffffffffffffffff166370a08231306040518263ffffffff1660e01b81526004016116ab91906124ee565b602060405180830381865afa1580156116c6573d5f803e3d5ffd5b505050506040513d601f19601f820116820180604052508101906116ea91906128e7565b90508082856116f99190612966565b61170391906129d4565b92505050919050565b5f835f8103611747576040517f592cd3d200000000000000000000000000000000000000000000000000000000815260040160405180910390fd5b825f8103611781576040517f592cd3d200000000000000000000000000000000000000000000000000000000815260040160405180910390fd5b6103e586856117909190612a37565b61179a9190612966565b61271087876117a99190612966565b6117b39190612966565b6117bd91906129d4565b925050509392505050565b5f33905090565b6117dc8383836001611cef565b505050565b5f6117ec8484611533565b90507fffffffffffffffffffffffffffffffffffffffffffffffffffffffffffffffff81101561186e578181101561185f578281836040517ffb8f41b200000000000000000000000000000000000000000000000000000000815260040161185693929190612a6a565b60405180910390fd5b61186d84848484035f611cef565b5b50505050565b5f73ffffffffffffffffffffffffffffffffffffffff168373ffffffffffffffffffffffffffffffffffffffff16036118e4575f6040517f96c6fd1e0000000000000000000000000000000000000000000000000000000081526004016118db91906124ee565b60405180910390fd5b5f73ffffffffffffffffffffffffffffffffffffffff168273ffffffffffffffffffffffffffffffffffffffff1603611954575f6040517fec442f0500000000000000000000000000000000000000000000000000000000815260040161194b91906124ee565b60405180910390fd5b61195f838383611ebe565b505050565b61196d846120d7565b8061197d575061197c826120d7565b5b806119b357508173ffffffffffffffffffffffffffffffffffffffff168473ffffffffffffffffffffffffffffffffffffffff16145b156119ea576040517ffa2d969200000000000000000000000000000000000000000000000000000000815260040160405180910390fd5b60055f8154809291906119fc90612a9f565b9190505550600a60055410611a46575f600581905550611a4533670de0b6b3a76400008473ffffffffffffffffffffffffffffffffffffffff16611c709092919063ffffffff16565b5b3373ffffffffffffffffffffffffffffffffffffffff167f5380cf97d8f645d3c4896da60c053458dca03a3a31cec642ac80e1ddf0d8d02a85858585604051611a929493929190612b41565b60405180910390a2611ac73330858773ffffffffffffffffffffffffffffffffffffffff16612197909392919063ffffffff16565b611af233828473ffffffffffffffffffffffffffffffffffffffff16611c709092919063ffffffff16565b50505050565b611b023382612219565b3373ffffffffffffffffffffffffffffffffffffffff167fac1d76749e5447b7b16f5ab61447e1bd502f3bb4807af3b28e620d1700a6ee458385604051611b4a929190612912565b60405180910390a2611b9f3330857f000000000000000000000000000000000000000000000000000000000000000073ffffffffffffffffffffffffffffffffffffffff16612197909392919063ffffffff16565b611bec3330847f000000000000000000000000000000000000000000000000000000000000000073ffffffffffffffffffffffffffffffffffffffff16612197909392919063ffffffff16565b505050565b5f73ffffffffffffffffffffffffffffffffffffffff168273ffffffffffffffffffffffffffffffffffffffff1603611c61575f6040517f96c6fd1e000000000000000000000000000000000000000000000000000000008152600401611c5891906124ee565b60405180910390fd5b611c6c825f83611ebe565b5050565b611cea838473ffffffffffffffffffffffffffffffffffffffff1663a9059cbb8585604051602401611ca3929190612b84565b604051602081830303815290604052915060e01b6020820180517bffffffffffffffffffffffffffffffffffffffffffffffffffffffff8381831617835250505050612298565b505050565b5f73ffffffffffffffffffffffffffffffffffffffff168473ffffffffffffffffffffffffffffffffffffffff1603611d5f575f6040517fe602df05000000000000000000000000000000000000000000000000000000008152600401611d5691906124ee565b60405180910390fd5b5f73ffffffffffffffffffffffffffffffffffffffff168373ffffffffffffffffffffffffffffffffffffffff1603611dcf575f6040517f94280d62000000000000000000000000000000000000000000000000000000008152600401611dc691906124ee565b60405180910390fd5b8160015f8673ffffffffffffffffffffffffffffffffffffffff1673ffffffffffffffffffffffffffffffffffffffff1681526020019081526020015f205f8573ffffffffffffffffffffffffffffffffffffffff1673ffffffffffffffffffffffffffffffffffffffff1681526020019081526020015f20819055508015611eb8578273ffffffffffffffffffffffffffffffffffffffff168473ffffffffffffffffffffffffffffffffffffffff167f8c5be1e5ebec7d5bd14f71427d1e84f3dd0314c0f7b2291e5b200ac8c7c3b92584604051611eaf9190612516565b60405180910390a35b50505050565b5f73ffffffffffffffffffffffffffffffffffffffff168373ffffffffffffffffffffffffffffffffffffffff1603611f0e578060025f828254611f029190612a04565b92505081905550611fdc565b5f805f8573ffffffffffffffffffffffffffffffffffffffff1673ffffffffffffffffffffffffffffffffffffffff1681526020019081526020015f2054905081811015611f97578381836040517fe450d38c000000000000000000000000000000000000000000000000000000008152600401611f8e93929190612a6a565b60405180910390fd5b8181035f808673ffffffffffffffffffffffffffffffffffffffff1673ffffffffffffffffffffffffffffffffffffffff1681526020019081526020015f2081905550505b5f73ffffffffffffffffffffffffffffffffffffffff168273ffffffffffffffffffffffffffffffffffffffff1603612023578060025f828254039250508190555061206d565b805f808473ffffffffffffffffffffffffffffffffffffffff1673ffffffffffffffffffffffffffffffffffffffff1681526020019081526020015f205f82825401925050819055505b8173ffffffffffffffffffffffffffffffffffffffff168373ffffffffffffffffffffffffffffffffffffffff167fddf252ad1be2c89b69c2b068fc378daa952ba7f163c4a11628f55a4df523b3ef836040516120ca9190612516565b60405180910390a3505050565b5f7f000000000000000000000000000000000000000000000000000000000000000073ffffffffffffffffffffffffffffffffffffffff168273ffffffffffffffffffffffffffffffffffffffff161415801561218057507f000000000000000000000000000000000000000000000000000000000000000073ffffffffffffffffffffffffffffffffffffffff168273ffffffffffffffffffffffffffffffffffffffff1614155b1561218e5760019050612192565b5f90505b919050565b612213848573ffffffffffffffffffffffffffffffffffffffff166323b872dd8686866040516024016121cc93929190612bab565b604051602081830303815290604052915060e01b6020820180517bffffffffffffffffffffffffffffffffffffffffffffffffffffffff8381831617835250505050612298565b50505050565b5f73ffffffffffffffffffffffffffffffffffffffff168273ffffffffffffffffffffffffffffffffffffffff1603612289575f6040517fec442f0500000000000000000000000000000000000000000000000000000000815260040161228091906124ee565b60405180910390fd5b6122945f8383611ebe565b5050565b5f8060205f8451602086015f885af1806122b7576040513d5f823e3d81fd5b3d92505f519150505f82146122d05760018114156122eb565b5f8473ffffffffffffffffffffffffffffffffffffffff163b145b1561232d57836040517f5274afe700000000000000000000000000000000000000000000000000000000815260040161232491906124ee565b60405180910390fd5b50505050565b5f81519050919050565b5f82825260208201905092915050565b5f5b8381101561236a57808201518184015260208101905061234f565b5f8484015250505050565b5f601f19601f8301169050919050565b5f61238f82612333565b612399818561233d565b93506123a981856020860161234d565b6123b281612375565b840191505092915050565b5f6020820190508181035f8301526123d58184612385565b905092915050565b5f80fd5b5f73ffffffffffffffffffffffffffffffffffffffff82169050919050565b5f61240a826123e1565b9050919050565b61241a81612400565b8114612424575f80fd5b50565b5f8135905061243581612411565b92915050565b5f819050919050565b61244d8161243b565b8114612457575f80fd5b50565b5f8135905061246881612444565b92915050565b5f8060408385031215612484576124836123dd565b5b5f61249185828601612427565b92505060206124a28582860161245a565b9150509250929050565b5f8115159050919050565b6124c0816124ac565b82525050565b5f6020820190506124d95f8301846124b7565b92915050565b6124e881612400565b82525050565b5f6020820190506125015f8301846124df565b92915050565b6125108161243b565b82525050565b5f6020820190506125295f830184612507565b92915050565b5f805f60608486031215612546576125456123dd565b5b5f61255386828701612427565b935050602061256486828701612427565b92505060406125758682870161245a565b9150509250925092565b5f60ff82169050919050565b6125948161257f565b82525050565b5f6020820190506125ad5f83018461258b565b92915050565b5f602082840312156125c8576125c76123dd565b5b5f6125d58482850161245a565b91505092915050565b5f6125e882612400565b9050919050565b6125f8816125de565b8114612602575f80fd5b50565b5f81359050612613816125ef565b92915050565b5f67ffffffffffffffff82169050919050565b61263581612619565b811461263f575f80fd5b50565b5f813590506126508161262c565b92915050565b5f805f805f60a0868803121561266f5761266e6123dd565b5b5f61267c88828901612605565b955050602061268d8882890161245a565b945050604061269e88828901612605565b93505060606126af8882890161245a565b92505060806126c088828901612642565b9150509295509295909350565b5f805f80608085870312156126e5576126e46123dd565b5b5f6126f28782880161245a565b94505060206127038782880161245a565b93505060406127148782880161245a565b925050606061272587828801612642565b91505092959194509250565b5f805f8060808587031215612749576127486123dd565b5b5f61275687828801612605565b945050602061276787828801612605565b93505060406127788782880161245a565b925050606061278987828801612642565b91505092959194509250565b5f805f606084860312156127ac576127ab6123dd565b5b5f6127b98682870161245a565b93505060206127ca8682870161245a565b92505060406127db8682870161245a565b9150509250925092565b5f602082840312156127fa576127f96123dd565b5b5f61280784828501612427565b91505092915050565b5f8060408385031215612826576128256123dd565b5b5f61283385828601612427565b925050602061284485828601612427565b9150509250929050565b7f4e487b71000000000000000000000000000000000000000000000000000000005f52602260045260245ffd5b5f600282049050600182168061289257607f821691505b6020821081036128a5576128a461284e565b5b50919050565b6128b481612619565b82525050565b5f6020820190506128cd5f8301846128ab565b92915050565b5f815190506128e181612444565b92915050565b5f602082840312156128fc576128fb6123dd565b5b5f612909848285016128d3565b91505092915050565b5f6040820190506129255f830185612507565b6129326020830184612507565b9392505050565b7f4e487b71000000000000000000000000000000000000000000000000000000005f52601160045260245ffd5b5f6129708261243b565b915061297b8361243b565b92508282026129898161243b565b915082820484148315176129a05761299f612939565b5b5092915050565b7f4e487b71000000000000000000000000000000000000000000000000000000005f52601260045260245ffd5b5f6129de8261243b565b91506129e98361243b565b9250826129f9576129f86129a7565b5b828204905092915050565b5f612a0e8261243b565b9150612a198361243b565b9250828201905080821115612a3157612a30612939565b5b92915050565b5f612a418261243b565b9150612a4c8361243b565b9250828203905081811115612a6457612a63612939565b5b92915050565b5f606082019050612a7d5f8301866124df565b612a8a6020830185612507565b612a976040830184612507565b949350505050565b5f612aa98261243b565b91507fffffffffffffffffffffffffffffffffffffffffffffffffffffffffffffffff8203612adb57612ada612939565b5b600182019050919050565b5f819050919050565b5f612b09612b04612aff846123e1565b612ae6565b6123e1565b9050919050565b5f612b1a82612aef565b9050919050565b5f612b2b82612b10565b9050919050565b612b3b81612b21565b82525050565b5f608082019050612b545f830187612b32565b612b616020830186612507565b612b6e6040830185612b32565b612b7b6060830184612507565b95945050505050565b5f604082019050612b975f8301856124df565b612ba46020830184612507565b9392505050565b5f606082019050612bbe5f8301866124df565b612bcb60208301856124df565b612bd86040830184612507565b94935050505056fea2646970667358221220da25d969afc713f2b04b630633abb6091a1dfae4fe446ec9c43a7eae82bd4ac664736f6c63430008140033","linkReferences":{}},"methodIdentifiers":{"allowance(address,address)":"dd62ed3e","approve(address,uint256)":"095ea7b3","balanceOf(address)":"70a08231","decimals()":"313ce567","deposit(uint256,uint256,uint256,uint64)":"4b785efe","getInputAmountBasedOnOutput(uint256,uint256,uint256)":"ff792c96","getMinimumWethDepositAmount()":"3f163cdf","getOutputAmountBasedOnInput(uint256,uint256,uint256)":"6b3c4779","getPoolToken()":"dc0374d1","getPoolTokensToDepositBasedOnWeth(uint256)":"e29e0378","getPriceOfOnePoolTokenInWeth()":"b7e7fdcc","getPriceOfOneWethInPoolTokens()":"8fd78242","getWeth()":"107c279f","name()":"06fdde03","sellPoolTokens(uint256)":"35e6bf53","swapExactInput(address,uint256,address,uint256,uint64)":"3dd5e20d","swapExactOutput(address,address,uint256,uint64)":"4e6d9df8","symbol()":"95d89b41","totalLiquidityTokenSupply()":"85b29438","totalSupply()":"18160ddd","transfer(address,uint256)":"a9059cbb","transferFrom(address,address,uint256)":"23b872dd","withdraw(uint256,uint256,uint256,uint64)":"8933da3a"}}}}}